{
  "contractName": "Voting",
  "abi": [
    {
      "constant": false,
      "inputs": [
        {
          "name": "candidate",
          "type": "bytes32"
        }
      ],
      "name": "getCandidates",
      "outputs": [
        {
          "name": "",
          "type": "bytes32[]"
        }
      ],
      "payable": false,
      "stateMutability": "nonpayable",
      "type": "function"
    },
    {
      "constant": false,
      "inputs": [
        {
          "name": "candidate",
          "type": "bytes32"
        }
      ],
      "name": "totalVotesFor",
      "outputs": [
        {
          "name": "",
          "type": "uint8"
        }
      ],
      "payable": false,
      "stateMutability": "nonpayable",
      "type": "function"
    },
    {
      "constant": false,
      "inputs": [
        {
          "name": "candidate",
          "type": "bytes32"
        }
      ],
      "name": "validCandidate",
      "outputs": [
        {
          "name": "",
          "type": "bool"
        }
      ],
      "payable": false,
      "stateMutability": "nonpayable",
      "type": "function"
    },
    {
      "constant": true,
      "inputs": [
        {
          "name": "",
          "type": "bytes32"
        }
      ],
      "name": "votesReceived",
      "outputs": [
        {
          "name": "",
          "type": "uint8"
        }
      ],
      "payable": false,
      "stateMutability": "view",
      "type": "function"
    },
    {
      "constant": true,
      "inputs": [
        {
          "name": "",
          "type": "uint256"
        }
      ],
      "name": "candidateList",
      "outputs": [
        {
          "name": "",
          "type": "bytes32"
        }
      ],
      "payable": false,
      "stateMutability": "view",
      "type": "function"
    },
    {
      "inputs": [
        {
          "name": "candidate",
          "type": "bytes32"
        }
      ],
      "payable": false,
      "stateMutability": "nonpayable",
      "type": "function",
      "constant": false,
      "name": "voteForCandidate",
      "outputs": []
    },
    {
      "inputs": [
        {
          "name": "candidateNames",
          "type": "bytes32[]"
        }
      ],
      "payable": false,
      "stateMutability": "nonpayable",
      "type": "constructor"
    }
  ],
  "bytecode": "0x6060604052341561000f57600080fd5b6040516103c53803806103c5833981016040528080519091019050600181805161003d929160200190610044565b50506100ae565b828054828255906000526020600020908101928215610081579160200282015b828111156100815782518255602090920191600190910190610064565b5061008d929150610091565b5090565b6100ab91905b8082111561008d5760008155600101610097565b90565b610308806100bd6000396000f300606060405236156100755763ffffffff7c010000000000000000000000000000000000000000000000000000000060003504166306a49fce811461007a5780632f265cf7146100e0578063392e66781461010c5780637021939f14610136578063b13c744b1461014c578063cc9ab26714610174575b600080fd5b341561008557600080fd5b61008d61018c565b60405160208082528190810183818151815260200191508051906020019060200280838360005b838110156100cc5780820151838201526020016100b4565b505050509050019250505060405180910390f35b34156100eb57600080fd5b6100f66004356101eb565b60405160ff909116815260200160405180910390f35b341561011757600080fd5b610122600435610214565b604051901515815260200160405180910390f35b341561014157600080fd5b6100f6600435610261565b341561015757600080fd5b610162600435610276565b60405190815260200160405180910390f35b341561017f57600080fd5b61018a600435610295565b005b6101946102ca565b60018054806020026020016040519081016040528092919081815260200182805480156101e157602002820191906000526020600020905b815481526001909101906020018083116101cc575b5050505050905090565b60006101f682610214565b15156101fe57fe5b5060009081526020819052604090205460ff1690565b6000805b60015481101561025657600180548491908390811061023357fe5b600091825260209091200154141561024e576001915061025b565b600101610218565b600091505b50919050565b60006020819052908152604090205460ff1681565b600180548290811061028457fe5b600091825260209091200154905081565b61029e81610214565b15156102a657fe5b6000908152602081905260409020805460ff8082166001011660ff19909116179055565b602060405190810160405260008152905600a165627a7a723058201dbd5eaae0f18d9db7c667977c2925850de0244e14731a0a6f4657a46227b83b0029",
  "source": "pragma solidity ^0.4.10;\n\ncontract Voting {\n  mapping (bytes32 => uint8) public votesReceived;\n  bytes32[] public candidateList;\n\n  function Voting(bytes32[] candidateNames) {\n    candidateList = candidateNames;\n  }\n\n  function totalVotesFor(bytes32 candidate) returns (uint8) {\n    assert(validCandidate(candidate));\n    return votesReceived[candidate];\n  }\n\n  function getCandidates() returns (bytes32[]) {\n    return candidateList;\n  }\n\n  function voteForCandidate(bytes32 candidate) {\n    assert(validCandidate(candidate));\n    votesReceived[candidate] += 1;\n  }\n\n  function validCandidate(bytes32 candidate) returns (bool) {\n    for(uint i = 0; i < candidateList.length; i++) {\n      if (candidateList[i] == candidate) {\n        return true;\n      }\n    }\n    return false;\n  }\n}\n\n",
  "sourcePath": "/Users/niels/Blockchain/voting/contracts/Voting.sol",
  "schemaVersion": "1.0.0",
  "updatedAt": "2017-10-24T11:43:02.843Z"
}