{
  "contractName": "Voting",
  "abi": [
    {
      "constant": false,
      "inputs": [
        {
          "name": "candidate",
          "type": "bytes32"
        }
      ],
      "name": "totalVotesFor",
      "outputs": [
        {
          "name": "",
          "type": "uint8"
        }
      ],
      "payable": false,
      "stateMutability": "nonpayable",
      "type": "function"
    },
    {
      "constant": false,
      "inputs": [
        {
          "name": "candidate",
          "type": "bytes32"
        }
      ],
      "name": "validCandidate",
      "outputs": [
        {
          "name": "",
          "type": "bool"
        }
      ],
      "payable": false,
      "stateMutability": "nonpayable",
      "type": "function"
    },
    {
      "constant": true,
      "inputs": [
        {
          "name": "",
          "type": "bytes32"
        }
      ],
      "name": "votesReceived",
      "outputs": [
        {
          "name": "",
          "type": "uint8"
        }
      ],
      "payable": false,
      "stateMutability": "view",
      "type": "function"
    },
    {
      "constant": false,
      "inputs": [
        {
          "name": "",
          "type": "uint256"
        }
      ],
      "name": "returnCandidates",
      "outputs": [
        {
          "name": "",
          "type": "bytes32[]"
        }
      ],
      "payable": false,
      "stateMutability": "nonpayable",
      "type": "function"
    },
    {
      "constant": true,
      "inputs": [
        {
          "name": "",
          "type": "uint256"
        }
      ],
      "name": "candidateList",
      "outputs": [
        {
          "name": "",
          "type": "bytes32"
        }
      ],
      "payable": false,
      "stateMutability": "view",
      "type": "function"
    },
    {
      "inputs": [
        {
          "name": "candidate",
          "type": "bytes32"
        }
      ],
      "payable": false,
      "stateMutability": "nonpayable",
      "type": "function",
      "constant": false,
      "name": "voteForCandidate",
      "outputs": []
    },
    {
      "inputs": [
        {
          "name": "candidateNames",
          "type": "bytes32[]"
        }
      ],
      "payable": false,
      "stateMutability": "nonpayable",
      "type": "constructor"
    }
  ],
  "bytecode": "0x6060604052341561000f57600080fd5b6040516103c53803806103c5833981016040528080519091019050600181805161003d929160200190610044565b50506100ae565b828054828255906000526020600020908101928215610081579160200282015b828111156100815782518255602090920191600190910190610064565b5061008d929150610091565b5090565b6100ab91905b8082111561008d5760008155600101610097565b90565b610308806100bd6000396000f300606060405236156100755763ffffffff7c01000000000000000000000000000000000000000000000000000000006000350416632f265cf7811461007a578063392e6678146100a65780637021939f146100d0578063b092872f146100e6578063b13c744b1461014c578063cc9ab26714610174575b600080fd5b341561008557600080fd5b61009060043561018c565b60405160ff909116815260200160405180910390f35b34156100b157600080fd5b6100bc6004356101b5565b604051901515815260200160405180910390f35b34156100db57600080fd5b610090600435610202565b34156100f157600080fd5b6100f9610217565b60405160208082528190810183818151815260200191508051906020019060200280838360005b83811015610138578082015183820152602001610120565b505050509050019250505060405180910390f35b341561015757600080fd5b610162600435610276565b60405190815260200160405180910390f35b341561017f57600080fd5b61018a600435610295565b005b6000610197826101b5565b151561019f57fe5b5060009081526020819052604090205460ff1690565b6000805b6001548110156101f75760018054849190839081106101d457fe5b60009182526020909120015414156101ef57600191506101fc565b6001016101b9565b600091505b50919050565b60006020819052908152604090205460ff1681565b61021f6102ca565b600180548060200260200160405190810160405280929190818152602001828054801561026c57602002820191906000526020600020905b81548152600190910190602001808311610257575b5050505050905090565b600180548290811061028457fe5b600091825260209091200154905081565b61029e816101b5565b15156102a657fe5b6000908152602081905260409020805460ff8082166001011660ff19909116179055565b602060405190810160405260008152905600a165627a7a723058206d4bdd806b37aa9da55545ac1edb78ff2fc352d273ff58676490bf2ff0b77c8c0029",
  "source": "pragma solidity ^0.4.10;\n\ncontract Voting {\n  mapping (bytes32 => uint8) public votesReceived;\n  bytes32[] public candidateList;\n\n  function Voting(bytes32[] candidateNames) {\n    candidateList = candidateNames;\n  }\n\n  function returnCandidates() returns (bytes32[]) {\n      return candidateList;\n  }\n\n  function totalVotesFor(bytes32 candidate) returns (uint8) {\n    assert(validCandidate(candidate));\n    return votesReceived[candidate];\n  }\n\n  function voteForCandidate(bytes32 candidate) {\n    assert(validCandidate(candidate));\n    votesReceived[candidate] += 1;\n  }\n\n  function validCandidate(bytes32 candidate) returns (bool) {\n    for(uint i = 0; i < candidateList.length; i++) {\n      if (candidateList[i] == candidate) {\n        return true;\n      }\n    }\n    return false;\n  }\n}\n\n",
  "sourcePath": "/Users/niels/Blockchain/voting/contracts/Voting.sol",
  "schemaVersion": "1.0.0",
  "updatedAt": "2017-10-23T14:06:04.403Z"
}